{
  "_format": "hh-sol-artifact-1",
  "contractName": "PlatziFood",
  "sourceName": "contracts/PlatziFood.sol",
  "abi": [
    {
      "inputs": [],
      "stateMutability": "nonpayable",
      "type": "constructor"
    },
    {
      "inputs": [
        {
          "internalType": "string",
          "name": "foodUrl",
          "type": "string"
        },
        {
          "internalType": "string",
          "name": "foodName",
          "type": "string"
        },
        {
          "internalType": "string",
          "name": "originCountry",
          "type": "string"
        }
      ],
      "name": "addPlatziFood",
      "outputs": [],
      "stateMutability": "nonpayable",
      "type": "function"
    },
    {
      "inputs": [],
      "name": "getAllPlatziFoods",
      "outputs": [
        {
          "components": [
            {
              "internalType": "address",
              "name": "owner",
              "type": "address"
            },
            {
              "internalType": "string",
              "name": "foodUrl",
              "type": "string"
            },
            {
              "internalType": "string",
              "name": "foodName",
              "type": "string"
            },
            {
              "internalType": "string",
              "name": "originCountry",
              "type": "string"
            }
          ],
          "internalType": "struct PlatziFood.PlatziFoodItem[]",
          "name": "",
          "type": "tuple[]"
        }
      ],
      "stateMutability": "view",
      "type": "function"
    },
    {
      "inputs": [],
      "name": "getPlatziFoodsByOwner",
      "outputs": [
        {
          "components": [
            {
              "internalType": "address",
              "name": "owner",
              "type": "address"
            },
            {
              "internalType": "string",
              "name": "foodUrl",
              "type": "string"
            },
            {
              "internalType": "string",
              "name": "foodName",
              "type": "string"
            },
            {
              "internalType": "string",
              "name": "originCountry",
              "type": "string"
            }
          ],
          "internalType": "struct PlatziFood.PlatziFoodItem[]",
          "name": "",
          "type": "tuple[]"
        }
      ],
      "stateMutability": "view",
      "type": "function"
    }
  ],
  "bytecode": "0x608060405234801561001057600080fd5b5061105b806100206000396000f3fe608060405234801561001057600080fd5b50600436106100415760003560e01c8063180c450f146100465780631e7c081314610062578063cb0d021814610080575b600080fd5b610060600480360381019061005b91906109a7565b61009e565b005b61006a610190565b6040516100779190610c41565b60405180910390f35b6100886103fb565b6040516100959190610c41565b60405180910390f35b600060405180608001604052803373ffffffffffffffffffffffffffffffffffffffff16815260200185815260200184815260200183815250908060018154018082558091505060019003906000526020600020906004020160009091909190915060008201518160000160006101000a81548173ffffffffffffffffffffffffffffffffffffffff021916908373ffffffffffffffffffffffffffffffffffffffff160217905550602082015181600101908161015c9190610e79565b5060408201518160020190816101729190610e79565b5060608201518160030190816101889190610e79565b505050505050565b60606000805480602002602001604051908101604052809291908181526020016000905b828210156103f257838290600052602060002090600402016040518060800160405290816000820160009054906101000a900473ffffffffffffffffffffffffffffffffffffffff1673ffffffffffffffffffffffffffffffffffffffff1673ffffffffffffffffffffffffffffffffffffffff16815260200160018201805461023d90610c92565b80601f016020809104026020016040519081016040528092919081815260200182805461026990610c92565b80156102b65780601f1061028b576101008083540402835291602001916102b6565b820191906000526020600020905b81548152906001019060200180831161029957829003601f168201915b505050505081526020016002820180546102cf90610c92565b80601f01602080910402602001604051908101604052809291908181526020018280546102fb90610c92565b80156103485780601f1061031d57610100808354040283529160200191610348565b820191906000526020600020905b81548152906001019060200180831161032b57829003601f168201915b5050505050815260200160038201805461036190610c92565b80601f016020809104026020016040519081016040528092919081815260200182805461038d90610c92565b80156103da5780601f106103af576101008083540402835291602001916103da565b820191906000526020600020905b8154815290600101906020018083116103bd57829003601f168201915b505050505081525050815260200190600101906101b4565b50505050905090565b60606000805b6000805490508110156104a9573373ffffffffffffffffffffffffffffffffffffffff166000828154811061043957610438610f4b565b5b906000526020600020906004020160000160009054906101000a900473ffffffffffffffffffffffffffffffffffffffff1673ffffffffffffffffffffffffffffffffffffffff1603610496576001826104939190610fa9565b91505b80806104a190610fdd565b915050610401565b5060008167ffffffffffffffff8111156104c6576104c561087c565b5b6040519080825280602002602001820160405280156104ff57816020015b6104ec61080f565b8152602001906001900390816104e45790505b5090506000805b600080549050811015610805573373ffffffffffffffffffffffffffffffffffffffff166000828154811061053e5761053d610f4b565b5b906000526020600020906004020160000160009054906101000a900473ffffffffffffffffffffffffffffffffffffffff1673ffffffffffffffffffffffffffffffffffffffff16036107f2576000818154811061059f5761059e610f4b565b5b90600052602060002090600402016040518060800160405290816000820160009054906101000a900473ffffffffffffffffffffffffffffffffffffffff1673ffffffffffffffffffffffffffffffffffffffff1673ffffffffffffffffffffffffffffffffffffffff16815260200160018201805461061e90610c92565b80601f016020809104026020016040519081016040528092919081815260200182805461064a90610c92565b80156106975780601f1061066c57610100808354040283529160200191610697565b820191906000526020600020905b81548152906001019060200180831161067a57829003601f168201915b505050505081526020016002820180546106b090610c92565b80601f01602080910402602001604051908101604052809291908181526020018280546106dc90610c92565b80156107295780601f106106fe57610100808354040283529160200191610729565b820191906000526020600020905b81548152906001019060200180831161070c57829003601f168201915b5050505050815260200160038201805461074290610c92565b80601f016020809104026020016040519081016040528092919081815260200182805461076e90610c92565b80156107bb5780601f10610790576101008083540402835291602001916107bb565b820191906000526020600020905b81548152906001019060200180831161079e57829003601f168201915b5050505050815250508383815181106107d7576107d6610f4b565b5b60200260200101819052506001826107ef9190610fa9565b91505b80806107fd90610fdd565b915050610506565b5081935050505090565b6040518060800160405280600073ffffffffffffffffffffffffffffffffffffffff1681526020016060815260200160608152602001606081525090565b6000604051905090565b600080fd5b600080fd5b600080fd5b600080fd5b6000601f19601f8301169050919050565b7f4e487b7100000000000000000000000000000000000000000000000000000000600052604160045260246000fd5b6108b48261086b565b810181811067ffffffffffffffff821117156108d3576108d261087c565b5b80604052505050565b60006108e661084d565b90506108f282826108ab565b919050565b600067ffffffffffffffff8211156109125761091161087c565b5b61091b8261086b565b9050602081019050919050565b82818337600083830152505050565b600061094a610945846108f7565b6108dc565b90508281526020810184848401111561096657610965610866565b5b610971848285610928565b509392505050565b600082601f83011261098e5761098d610861565b5b813561099e848260208601610937565b91505092915050565b6000806000606084860312156109c0576109bf610857565b5b600084013567ffffffffffffffff8111156109de576109dd61085c565b5b6109ea86828701610979565b935050602084013567ffffffffffffffff811115610a0b57610a0a61085c565b5b610a1786828701610979565b925050604084013567ffffffffffffffff811115610a3857610a3761085c565b5b610a4486828701610979565b9150509250925092565b600081519050919050565b600082825260208201905092915050565b6000819050602082019050919050565b600073ffffffffffffffffffffffffffffffffffffffff82169050919050565b6000610aa582610a7a565b9050919050565b610ab581610a9a565b82525050565b600081519050919050565b600082825260208201905092915050565b60005b83811015610af5578082015181840152602081019050610ada565b60008484015250505050565b6000610b0c82610abb565b610b168185610ac6565b9350610b26818560208601610ad7565b610b2f8161086b565b840191505092915050565b6000608083016000830151610b526000860182610aac565b5060208301518482036020860152610b6a8282610b01565b91505060408301518482036040860152610b848282610b01565b91505060608301518482036060860152610b9e8282610b01565b9150508091505092915050565b6000610bb78383610b3a565b905092915050565b6000602082019050919050565b6000610bd782610a4e565b610be18185610a59565b935083602082028501610bf385610a6a565b8060005b85811015610c2f5784840389528151610c108582610bab565b9450610c1b83610bbf565b925060208a01995050600181019050610bf7565b50829750879550505050505092915050565b60006020820190508181036000830152610c5b8184610bcc565b905092915050565b7f4e487b7100000000000000000000000000000000000000000000000000000000600052602260045260246000fd5b60006002820490506001821680610caa57607f821691505b602082108103610cbd57610cbc610c63565b5b50919050565b60008190508160005260206000209050919050565b60006020601f8301049050919050565b600082821b905092915050565b600060088302610d257fffffffffffffffffffffffffffffffffffffffffffffffffffffffffffffffff82610ce8565b610d2f8683610ce8565b95508019841693508086168417925050509392505050565b6000819050919050565b6000819050919050565b6000610d76610d71610d6c84610d47565b610d51565b610d47565b9050919050565b6000819050919050565b610d9083610d5b565b610da4610d9c82610d7d565b848454610cf5565b825550505050565b600090565b610db9610dac565b610dc4818484610d87565b505050565b5b81811015610de857610ddd600082610db1565b600181019050610dca565b5050565b601f821115610e2d57610dfe81610cc3565b610e0784610cd8565b81016020851015610e16578190505b610e2a610e2285610cd8565b830182610dc9565b50505b505050565b600082821c905092915050565b6000610e5060001984600802610e32565b1980831691505092915050565b6000610e698383610e3f565b9150826002028217905092915050565b610e8282610abb565b67ffffffffffffffff811115610e9b57610e9a61087c565b5b610ea58254610c92565b610eb0828285610dec565b600060209050601f831160018114610ee35760008415610ed1578287015190505b610edb8582610e5d565b865550610f43565b601f198416610ef186610cc3565b60005b82811015610f1957848901518255600182019150602085019450602081019050610ef4565b86831015610f365784890151610f32601f891682610e3f565b8355505b6001600288020188555050505b505050505050565b7f4e487b7100000000000000000000000000000000000000000000000000000000600052603260045260246000fd5b7f4e487b7100000000000000000000000000000000000000000000000000000000600052601160045260246000fd5b6000610fb482610d47565b9150610fbf83610d47565b9250828201905080821115610fd757610fd6610f7a565b5b92915050565b6000610fe882610d47565b91507fffffffffffffffffffffffffffffffffffffffffffffffffffffffffffffffff820361101a57611019610f7a565b5b60018201905091905056fea264697066735822122059fc7951c4fd853d83dbc1bbb9d9aa26fe47b64063216f650ef66188cc1322d164736f6c63430008110033",
  "linkReferences": {},
  "deployedLinkReferences": {}
}